{
  "contractName": "Bank",
  "abi": [
    {
      "inputs": [
        {
          "internalType": "contract Token",
          "name": "_token",
          "type": "address"
        }
      ],
      "stateMutability": "nonpayable",
      "type": "constructor"
    },
    {
      "anonymous": false,
      "inputs": [
        {
          "indexed": true,
          "internalType": "address",
          "name": "user",
          "type": "address"
        },
        {
          "indexed": false,
          "internalType": "uint256",
          "name": "etherAmount",
          "type": "uint256"
        },
        {
          "indexed": false,
          "internalType": "uint256",
          "name": "timeStart",
          "type": "uint256"
        },
        {
          "indexed": false,
          "internalType": "bool",
          "name": "isDeposited",
          "type": "bool"
        }
      ],
      "name": "DepositEvent",
      "type": "event"
    },
    {
      "anonymous": false,
      "inputs": [
        {
          "indexed": true,
          "internalType": "address",
          "name": "user",
          "type": "address"
        },
        {
          "indexed": false,
          "internalType": "uint256",
          "name": "etherAmount",
          "type": "uint256"
        },
        {
          "indexed": false,
          "internalType": "uint256",
          "name": "knsAmount",
          "type": "uint256"
        }
      ],
      "name": "SwapETHtoKNSEvent",
      "type": "event"
    },
    {
      "anonymous": false,
      "inputs": [
        {
          "indexed": true,
          "internalType": "address",
          "name": "user",
          "type": "address"
        },
        {
          "indexed": false,
          "internalType": "uint256",
          "name": "etherAmount",
          "type": "uint256"
        },
        {
          "indexed": false,
          "internalType": "uint256",
          "name": "depositTime",
          "type": "uint256"
        },
        {
          "indexed": false,
          "internalType": "uint256",
          "name": "interest",
          "type": "uint256"
        }
      ],
      "name": "WithdrawEvent",
      "type": "event"
    },
    {
      "inputs": [
        {
          "internalType": "address",
          "name": "",
          "type": "address"
        }
      ],
      "name": "depositStart",
      "outputs": [
        {
          "internalType": "uint256",
          "name": "",
          "type": "uint256"
        }
      ],
      "stateMutability": "view",
      "type": "function",
      "constant": true
    },
    {
      "inputs": [],
      "name": "ethToKnsConversion",
      "outputs": [
        {
          "internalType": "uint256",
          "name": "",
          "type": "uint256"
        }
      ],
      "stateMutability": "view",
      "type": "function",
      "constant": true
    },
    {
      "inputs": [
        {
          "internalType": "address",
          "name": "",
          "type": "address"
        }
      ],
      "name": "etherBalanceOf",
      "outputs": [
        {
          "internalType": "uint256",
          "name": "",
          "type": "uint256"
        }
      ],
      "stateMutability": "view",
      "type": "function",
      "constant": true
    },
    {
      "inputs": [
        {
          "internalType": "address",
          "name": "",
          "type": "address"
        }
      ],
      "name": "isDeposited",
      "outputs": [
        {
          "internalType": "bool",
          "name": "",
          "type": "bool"
        }
      ],
      "stateMutability": "view",
      "type": "function",
      "constant": true
    },
    {
      "inputs": [],
      "name": "getTokenTotalSupply",
      "outputs": [
        {
          "internalType": "uint256",
          "name": "",
          "type": "uint256"
        }
      ],
      "stateMutability": "view",
      "type": "function",
      "constant": true
    },
    {
      "inputs": [],
      "name": "deposit",
      "outputs": [],
      "stateMutability": "payable",
      "type": "function",
      "payable": true
    },
    {
      "inputs": [],
      "name": "withdraw",
      "outputs": [],
      "stateMutability": "nonpayable",
      "type": "function"
    },
    {
      "inputs": [],
      "name": "swapETHtoKNS",
      "outputs": [],
      "stateMutability": "payable",
      "type": "function",
      "payable": true
    },
    {
      "inputs": [
        {
          "internalType": "address",
          "name": "user",
          "type": "address"
        }
      ],
      "name": "getKoinsBalanceOf",
      "outputs": [
        {
          "internalType": "uint256",
          "name": "",
          "type": "uint256"
        }
      ],
      "stateMutability": "view",
      "type": "function",
      "constant": true
    },
    {
      "inputs": [],
      "name": "borrow",
      "outputs": [],
      "stateMutability": "payable",
      "type": "function",
      "payable": true
    },
    {
      "inputs": [],
      "name": "payOff",
      "outputs": [],
      "stateMutability": "nonpayable",
      "type": "function"
    }
  ],
  "bytecode": "0x608060405260646001553480156200001657600080fd5b50604051620011c7380380620011c783398181016040528101906200003c919062000101565b806000806101000a81548173ffffffffffffffffffffffffffffffffffffffff021916908373ffffffffffffffffffffffffffffffffffffffff1602179055505062000133565b600080fd5b600073ffffffffffffffffffffffffffffffffffffffff82169050919050565b6000620000b58262000088565b9050919050565b6000620000c982620000a8565b9050919050565b620000db81620000bc565b8114620000e757600080fd5b50565b600081519050620000fb81620000d0565b92915050565b6000602082840312156200011a576200011962000083565b5b60006200012a84828501620000ea565b91505092915050565b61108480620001436000396000f3fe60806040526004361061009b5760003560e01c80637241cff7116100645780637241cff714610161578063737320241461019e578063d0e30db0146101db578063e68d3569146101e5578063ed69b1fe146101ef578063ff87930a146101f95761009b565b8062250608146100a0578063179fc99f146100cb5780633ccfd60b146101085780633fac68d51461011f57806357df844b14610136575b600080fd5b3480156100ac57600080fd5b506100b5610236565b6040516100c29190610b3c565b60405180910390f35b3480156100d757600080fd5b506100f260048036038101906100ed9190610bba565b61023c565b6040516100ff9190610b3c565b60405180910390f35b34801561011457600080fd5b5061011d610254565b005b34801561012b57600080fd5b506101346105fd565b005b34801561014257600080fd5b5061014b6105ff565b6040516101589190610b3c565b60405180910390f35b34801561016d57600080fd5b5061018860048036038101906101839190610bba565b61069a565b6040516101959190610b3c565b60405180910390f35b3480156101aa57600080fd5b506101c560048036038101906101c09190610bba565b61073e565b6040516101d29190610c02565b60405180910390f35b6101e361075e565b005b6101ed6109cc565b005b6101f76109ce565b005b34801561020557600080fd5b50610220600480360381019061021b9190610bba565b610b0b565b60405161022d9190610b3c565b60405180910390f35b60015481565b60026020528060005260406000206000915090505481565b60011515600460003373ffffffffffffffffffffffffffffffffffffffff1673ffffffffffffffffffffffffffffffffffffffff16815260200190815260200160002060009054906101000a900460ff161515146102e7576040517f08c379a00000000000000000000000000000000000000000000000000000000081526004016102de90610c7a565b60405180910390fd5b6000600260003373ffffffffffffffffffffffffffffffffffffffff1673ffffffffffffffffffffffffffffffffffffffff1681526020019081526020016000205490506000600360003373ffffffffffffffffffffffffffffffffffffffff1673ffffffffffffffffffffffffffffffffffffffff16815260200190815260200160002054426103789190610cc9565b90506000662386f26fc10000600260003373ffffffffffffffffffffffffffffffffffffffff1673ffffffffffffffffffffffffffffffffffffffff168152602001908152602001600020546103ce9190610d2c565b6301e337316103dd9190610d5d565b9050600082826103ed9190610d5d565b90503373ffffffffffffffffffffffffffffffffffffffff166108fc859081150290604051600060405180830381858888f19350505050158015610435573d6000803e3d6000fd5b5060008054906101000a900473ffffffffffffffffffffffffffffffffffffffff1673ffffffffffffffffffffffffffffffffffffffff166340c10f1933836040518363ffffffff1660e01b8152600401610491929190610dc6565b600060405180830381600087803b1580156104ab57600080fd5b505af11580156104bf573d6000803e3d6000fd5b505050506000600360003373ffffffffffffffffffffffffffffffffffffffff1673ffffffffffffffffffffffffffffffffffffffff168152602001908152602001600020819055506000600260003373ffffffffffffffffffffffffffffffffffffffff1673ffffffffffffffffffffffffffffffffffffffff168152602001908152602001600020819055506000600460003373ffffffffffffffffffffffffffffffffffffffff1673ffffffffffffffffffffffffffffffffffffffff16815260200190815260200160002060006101000a81548160ff0219169083151502179055503373ffffffffffffffffffffffffffffffffffffffff167f72bd9af305776d5a57201bdd99d0c17d95d19545592cf3f699fa1ec0faf2c9758585846040516105ef93929190610def565b60405180910390a250505050565b565b60008060008054906101000a900473ffffffffffffffffffffffffffffffffffffffff1673ffffffffffffffffffffffffffffffffffffffff166318160ddd6040518163ffffffff1660e01b8152600401602060405180830381865afa15801561066d573d6000803e3d6000fd5b505050506040513d601f19601f820116820180604052508101906106919190610e52565b90508091505090565b60008060009054906101000a900473ffffffffffffffffffffffffffffffffffffffff1673ffffffffffffffffffffffffffffffffffffffff166370a08231836040518263ffffffff1660e01b81526004016106f69190610e7f565b602060405180830381865afa158015610713573d6000803e3d6000fd5b505050506040513d601f19601f820116820180604052508101906107379190610e52565b9050919050565b60046020528060005260406000206000915054906101000a900460ff1681565b662386f26fc100003410156107a8576040517f08c379a000000000000000000000000000000000000000000000000000000000815260040161079f90610f0c565b60405180910390fd5b34600260003373ffffffffffffffffffffffffffffffffffffffff1673ffffffffffffffffffffffffffffffffffffffff168152602001908152602001600020546107f39190610f2c565b600260003373ffffffffffffffffffffffffffffffffffffffff1673ffffffffffffffffffffffffffffffffffffffff1681526020019081526020016000208190555060001515600460003373ffffffffffffffffffffffffffffffffffffffff1673ffffffffffffffffffffffffffffffffffffffff16815260200190815260200160002060009054906101000a900460ff16151514156108d45742600360003373ffffffffffffffffffffffffffffffffffffffff1673ffffffffffffffffffffffffffffffffffffffff168152602001908152602001600020819055505b6001600460003373ffffffffffffffffffffffffffffffffffffffff1673ffffffffffffffffffffffffffffffffffffffff16815260200190815260200160002060006101000a81548160ff0219169083151502179055503373ffffffffffffffffffffffffffffffffffffffff167fe7e3372899c2f9e8db9e6ba8d734f4f11139c8f2e3944a20728903e7823e23623442600460003373ffffffffffffffffffffffffffffffffffffffff1673ffffffffffffffffffffffffffffffffffffffff16815260200190815260200160002060009054906101000a900460ff166040516109c293929190610f82565b60405180910390a2565b565b670de0b6b3a7640000341015610a19576040517f08c379a0000000000000000000000000000000000000000000000000000000008152600401610a1090611005565b60405180910390fd5b600060015434610a299190610d5d565b905060008054906101000a900473ffffffffffffffffffffffffffffffffffffffff1673ffffffffffffffffffffffffffffffffffffffff166340c10f1933836040518363ffffffff1660e01b8152600401610a86929190610dc6565b600060405180830381600087803b158015610aa057600080fd5b505af1158015610ab4573d6000803e3d6000fd5b505050503373ffffffffffffffffffffffffffffffffffffffff167f01af7a01f8b0b7b060d781e518529e732530dd0253b3248b1fb7fba8aa9b52413483604051610b00929190611025565b60405180910390a250565b60036020528060005260406000206000915090505481565b6000819050919050565b610b3681610b23565b82525050565b6000602082019050610b516000830184610b2d565b92915050565b600080fd5b600073ffffffffffffffffffffffffffffffffffffffff82169050919050565b6000610b8782610b5c565b9050919050565b610b9781610b7c565b8114610ba257600080fd5b50565b600081359050610bb481610b8e565b92915050565b600060208284031215610bd057610bcf610b57565b5b6000610bde84828501610ba5565b91505092915050565b60008115159050919050565b610bfc81610be7565b82525050565b6000602082019050610c176000830184610bf3565b92915050565b600082825260208201905092915050565b7f4572726f722c20796f75206d757374206465706f736974206669727374000000600082015250565b6000610c64601d83610c1d565b9150610c6f82610c2e565b602082019050919050565b60006020820190508181036000830152610c9381610c57565b9050919050565b7f4e487b7100000000000000000000000000000000000000000000000000000000600052601160045260246000fd5b6000610cd482610b23565b9150610cdf83610b23565b925082821015610cf257610cf1610c9a565b5b828203905092915050565b7f4e487b7100000000000000000000000000000000000000000000000000000000600052601260045260246000fd5b6000610d3782610b23565b9150610d4283610b23565b925082610d5257610d51610cfd565b5b828204905092915050565b6000610d6882610b23565b9150610d7383610b23565b9250817fffffffffffffffffffffffffffffffffffffffffffffffffffffffffffffffff0483118215151615610dac57610dab610c9a565b5b828202905092915050565b610dc081610b7c565b82525050565b6000604082019050610ddb6000830185610db7565b610de86020830184610b2d565b9392505050565b6000606082019050610e046000830186610b2d565b610e116020830185610b2d565b610e1e6040830184610b2d565b949350505050565b610e2f81610b23565b8114610e3a57600080fd5b50565b600081519050610e4c81610e26565b92915050565b600060208284031215610e6857610e67610b57565b5b6000610e7684828501610e3d565b91505092915050565b6000602082019050610e946000830184610db7565b92915050565b7f4572726f72206465706f736974206d757374206265203e3d20302e303120455460008201527f4800000000000000000000000000000000000000000000000000000000000000602082015250565b6000610ef6602183610c1d565b9150610f0182610e9a565b604082019050919050565b60006020820190508181036000830152610f2581610ee9565b9050919050565b6000610f3782610b23565b9150610f4283610b23565b9250827fffffffffffffffffffffffffffffffffffffffffffffffffffffffffffffffff03821115610f7757610f76610c9a565b5b828201905092915050565b6000606082019050610f976000830186610b2d565b610fa46020830185610b2d565b610fb16040830184610bf3565b949350505050565b7f4572726f72206465706f736974206d757374206265203e3d2031204554480000600082015250565b6000610fef601e83610c1d565b9150610ffa82610fb9565b602082019050919050565b6000602082019050818103600083015261101e81610fe2565b9050919050565b600060408201905061103a6000830185610b2d565b6110476020830184610b2d565b939250505056fea2646970667358221220b04add516d5d14cb057db61b88d233138fb4a30e049835abba42e6c1ee0b553764736f6c634300080b0033",
  "immutableReferences": {},
  "source": "// SPDX-License-Identifier: MIT\r\npragma solidity >0.8.0;\r\n\r\nimport \"./Token.sol\";\r\n\r\ncontract Bank {\r\n    //assign Token contract to variable\r\n    Token private token;\r\n\r\n    // conversion\r\n    uint256 public ethToKnsConversion = 100;\r\n\r\n    //add mappings\r\n    mapping(address => uint256) public etherBalanceOf;\r\n    mapping(address => uint256) public depositStart;\r\n    mapping(address => bool) public isDeposited;\r\n\r\n    //add events\r\n    event DepositEvent(\r\n        address indexed user,\r\n        uint256 etherAmount,\r\n        uint256 timeStart,\r\n        bool isDeposited\r\n    );\r\n    event WithdrawEvent(\r\n        address indexed user,\r\n        uint256 etherAmount,\r\n        uint256 depositTime,\r\n        uint256 interest\r\n    );\r\n    event SwapETHtoKNSEvent(\r\n        address indexed user,\r\n        uint256 etherAmount,\r\n        uint256 knsAmount\r\n    );\r\n\r\n    //pass as constructor argument deployed Token contract\r\n    constructor(Token _token) {\r\n        token = _token;\r\n    }\r\n\r\n    function getTokenTotalSupply() public view returns (uint256) {\r\n        uint256 totalSupply = token.totalSupply();\r\n        return totalSupply;\r\n    }\r\n\r\n    function deposit() public payable {\r\n        //check if msg.sender didn't already deposited funds\r\n        //check if msg.value is >= than 0.01 ETH\r\n        require(msg.value >= 1e16, \"Error deposit must be >= 0.01 ETH\");\r\n\r\n        //increase msg.sender ether deposit balance\r\n        //start msg.sender hodling time\r\n        etherBalanceOf[msg.sender] = etherBalanceOf[msg.sender] + msg.value;\r\n\r\n        // If there is no previous deposit, then save the time of this deposit only\r\n        if (isDeposited[msg.sender] == false)\r\n            depositStart[msg.sender] = block.timestamp;\r\n\r\n        //set msg.sender deposit status to true\r\n        isDeposited[msg.sender] = true;\r\n\r\n        //emit Deposit event\r\n        emit DepositEvent(\r\n            msg.sender,\r\n            msg.value,\r\n            block.timestamp,\r\n            isDeposited[msg.sender]\r\n        );\r\n    }\r\n\r\n    function withdraw() public {\r\n        //check if msg.sender deposit status is true\r\n        require(\r\n            isDeposited[msg.sender] == true,\r\n            \"Error, you must deposit first\"\r\n        );\r\n        //assign msg.sender ether deposit balance to variable for event\r\n        uint256 userBalance = etherBalanceOf[msg.sender];\r\n\r\n        //check user's hodl time\r\n        uint256 depositTime = block.timestamp - depositStart[msg.sender];\r\n\r\n        //calc interest per second\r\n        uint256 interestPerSecond = 31668017 *\r\n            (etherBalanceOf[msg.sender] / 1e16);\r\n        uint256 interest = interestPerSecond * depositTime;\r\n\r\n        //calc accrued interest\r\n        //send eth to user\r\n        payable(msg.sender).transfer(userBalance);\r\n\r\n        //send interest in tokens to user\r\n        token.mint(msg.sender, interest);\r\n\r\n        //reset depositer data\r\n        depositStart[msg.sender] = 0;\r\n        etherBalanceOf[msg.sender] = 0;\r\n        isDeposited[msg.sender] = false;\r\n\r\n        //emit event\r\n        emit WithdrawEvent(msg.sender, userBalance, depositTime, interest);\r\n    }\r\n\r\n    function swapETHtoKNS() public payable {\r\n        require(msg.value >= 1e18, \"Error deposit must be >= 1 ETH\");\r\n\r\n        uint256 knsAmount = msg.value * ethToKnsConversion;\r\n\r\n        token.mint(msg.sender, knsAmount);\r\n\r\n        //emit Deposit event\r\n        emit SwapETHtoKNSEvent(msg.sender, msg.value, knsAmount);\r\n    }\r\n\r\n    function getKoinsBalanceOf(address user) public view returns (uint256) {\r\n        return token.balanceOf(user);\r\n    }\r\n\r\n    function borrow() public payable {\r\n        //check if collateral is >= than 0.01 ETH\r\n        //check if user doesn't have active loan\r\n        //add msg.value to ether collateral\r\n        //calc tokens amount to mint, 50% of msg.value\r\n        //mint&send tokens to user\r\n        //activate borrower's loan status\r\n        //emit event\r\n    }\r\n\r\n    function payOff() public {\r\n        //check if loan is active\r\n        //transfer tokens from user back to the contract\r\n        //calc fee\r\n        //send user's collateral minus fee\r\n        //reset borrower's data\r\n        //emit event\r\n    }\r\n}\r\n",
  "sourcePath": "/Users/jorgeandres/Documents/workspace/blockchain/bank_simple/src/contracts/Bank.sol",
  "compiler": {
    "name": "solc",
    "version": "0.8.11+commit.d7f03943.Emscripten.clang"
  },
  "schemaVersion": "3.4.4",
  "updatedAt": "2022-01-26T20:57:45.515Z",
  "networkType": "ethereum",
  "devdoc": {
    "kind": "dev",
    "methods": {},
    "version": 1
  },
  "userdoc": {
    "kind": "user",
    "methods": {},
    "version": 1
  }
}