{
  "contractName": "Bank",
  "abi": [
    {
      "inputs": [
        {
          "internalType": "contract Token",
          "name": "_token",
          "type": "address"
        }
      ],
      "stateMutability": "nonpayable",
      "type": "constructor"
    },
    {
      "anonymous": false,
      "inputs": [
        {
          "indexed": true,
          "internalType": "address",
          "name": "user",
          "type": "address"
        },
        {
          "indexed": false,
          "internalType": "uint256",
          "name": "etherAmount",
          "type": "uint256"
        },
        {
          "indexed": false,
          "internalType": "uint256",
          "name": "timeStart",
          "type": "uint256"
        },
        {
          "indexed": false,
          "internalType": "bool",
          "name": "isDeposited",
          "type": "bool"
        }
      ],
      "name": "DepositEvent",
      "type": "event"
    },
    {
      "anonymous": false,
      "inputs": [
        {
          "indexed": true,
          "internalType": "address",
          "name": "user",
          "type": "address"
        },
        {
          "indexed": false,
          "internalType": "uint256",
          "name": "etherAmount",
          "type": "uint256"
        },
        {
          "indexed": false,
          "internalType": "uint256",
          "name": "knsAmount",
          "type": "uint256"
        }
      ],
      "name": "SwapETHtoKNSEvent",
      "type": "event"
    },
    {
      "anonymous": false,
      "inputs": [
        {
          "indexed": true,
          "internalType": "address",
          "name": "user",
          "type": "address"
        },
        {
          "indexed": false,
          "internalType": "uint256",
          "name": "etherAmount",
          "type": "uint256"
        },
        {
          "indexed": false,
          "internalType": "uint256",
          "name": "depositTime",
          "type": "uint256"
        },
        {
          "indexed": false,
          "internalType": "uint256",
          "name": "interest",
          "type": "uint256"
        }
      ],
      "name": "WithdrawEvent",
      "type": "event"
    },
    {
      "inputs": [
        {
          "internalType": "address",
          "name": "",
          "type": "address"
        }
      ],
      "name": "depositStart",
      "outputs": [
        {
          "internalType": "uint256",
          "name": "",
          "type": "uint256"
        }
      ],
      "stateMutability": "view",
      "type": "function",
      "constant": true
    },
    {
      "inputs": [],
      "name": "ethToKnsConversion",
      "outputs": [
        {
          "internalType": "uint256",
          "name": "",
          "type": "uint256"
        }
      ],
      "stateMutability": "view",
      "type": "function",
      "constant": true
    },
    {
      "inputs": [
        {
          "internalType": "address",
          "name": "",
          "type": "address"
        }
      ],
      "name": "etherBalanceOf",
      "outputs": [
        {
          "internalType": "uint256",
          "name": "",
          "type": "uint256"
        }
      ],
      "stateMutability": "view",
      "type": "function",
      "constant": true
    },
    {
      "inputs": [
        {
          "internalType": "address",
          "name": "",
          "type": "address"
        }
      ],
      "name": "isDeposited",
      "outputs": [
        {
          "internalType": "bool",
          "name": "",
          "type": "bool"
        }
      ],
      "stateMutability": "view",
      "type": "function",
      "constant": true
    },
    {
      "inputs": [],
      "name": "getTokenTotalSupply",
      "outputs": [
        {
          "internalType": "uint256",
          "name": "",
          "type": "uint256"
        }
      ],
      "stateMutability": "view",
      "type": "function",
      "constant": true
    },
    {
      "inputs": [],
      "name": "deposit",
      "outputs": [],
      "stateMutability": "payable",
      "type": "function",
      "payable": true
    },
    {
      "inputs": [],
      "name": "withdraw",
      "outputs": [],
      "stateMutability": "nonpayable",
      "type": "function"
    },
    {
      "inputs": [],
      "name": "swapETHtoKNS",
      "outputs": [],
      "stateMutability": "payable",
      "type": "function",
      "payable": true
    },
    {
      "inputs": [],
      "name": "borrow",
      "outputs": [],
      "stateMutability": "payable",
      "type": "function",
      "payable": true
    },
    {
      "inputs": [],
      "name": "payOff",
      "outputs": [],
      "stateMutability": "nonpayable",
      "type": "function"
    }
  ],
  "bytecode": "0x608060405260646001553480156200001657600080fd5b50604051620010c0380380620010c083398181016040528101906200003c919062000101565b806000806101000a81548173ffffffffffffffffffffffffffffffffffffffff021916908373ffffffffffffffffffffffffffffffffffffffff1602179055505062000133565b600080fd5b600073ffffffffffffffffffffffffffffffffffffffff82169050919050565b6000620000b58262000088565b9050919050565b6000620000c982620000a8565b9050919050565b620000db81620000bc565b8114620000e757600080fd5b50565b600081519050620000fb81620000d0565b92915050565b6000602082840312156200011a576200011962000083565b5b60006200012a84828501620000ea565b91505092915050565b610f7d80620001436000396000f3fe6080604052600436106100905760003560e01c806373732024116100595780637373202414610156578063d0e30db014610193578063e68d35691461019d578063ed69b1fe146101a7578063ff87930a146101b157610090565b806225060814610095578063179fc99f146100c05780633ccfd60b146100fd5780633fac68d51461011457806357df844b1461012b575b600080fd5b3480156100a157600080fd5b506100aa6101ee565b6040516100b79190610a50565b60405180910390f35b3480156100cc57600080fd5b506100e760048036038101906100e29190610ace565b6101f4565b6040516100f49190610a50565b60405180910390f35b34801561010957600080fd5b5061011261020c565b005b34801561012057600080fd5b506101296105b5565b005b34801561013757600080fd5b506101406105b7565b60405161014d9190610a50565b60405180910390f35b34801561016257600080fd5b5061017d60048036038101906101789190610ace565b610652565b60405161018a9190610b16565b60405180910390f35b61019b610672565b005b6101a56108e0565b005b6101af6108e2565b005b3480156101bd57600080fd5b506101d860048036038101906101d39190610ace565b610a1f565b6040516101e59190610a50565b60405180910390f35b60015481565b60026020528060005260406000206000915090505481565b60011515600460003373ffffffffffffffffffffffffffffffffffffffff1673ffffffffffffffffffffffffffffffffffffffff16815260200190815260200160002060009054906101000a900460ff1615151461029f576040517f08c379a000000000000000000000000000000000000000000000000000000000815260040161029690610b8e565b60405180910390fd5b6000600260003373ffffffffffffffffffffffffffffffffffffffff1673ffffffffffffffffffffffffffffffffffffffff1681526020019081526020016000205490506000600360003373ffffffffffffffffffffffffffffffffffffffff1673ffffffffffffffffffffffffffffffffffffffff16815260200190815260200160002054426103309190610bdd565b90506000662386f26fc10000600260003373ffffffffffffffffffffffffffffffffffffffff1673ffffffffffffffffffffffffffffffffffffffff168152602001908152602001600020546103869190610c40565b6301e337316103959190610c71565b9050600082826103a59190610c71565b90503373ffffffffffffffffffffffffffffffffffffffff166108fc859081150290604051600060405180830381858888f193505050501580156103ed573d6000803e3d6000fd5b5060008054906101000a900473ffffffffffffffffffffffffffffffffffffffff1673ffffffffffffffffffffffffffffffffffffffff166340c10f1933836040518363ffffffff1660e01b8152600401610449929190610cda565b600060405180830381600087803b15801561046357600080fd5b505af1158015610477573d6000803e3d6000fd5b505050506000600360003373ffffffffffffffffffffffffffffffffffffffff1673ffffffffffffffffffffffffffffffffffffffff168152602001908152602001600020819055506000600260003373ffffffffffffffffffffffffffffffffffffffff1673ffffffffffffffffffffffffffffffffffffffff168152602001908152602001600020819055506000600460003373ffffffffffffffffffffffffffffffffffffffff1673ffffffffffffffffffffffffffffffffffffffff16815260200190815260200160002060006101000a81548160ff0219169083151502179055503373ffffffffffffffffffffffffffffffffffffffff167f72bd9af305776d5a57201bdd99d0c17d95d19545592cf3f699fa1ec0faf2c9758585846040516105a793929190610d03565b60405180910390a250505050565b565b60008060008054906101000a900473ffffffffffffffffffffffffffffffffffffffff1673ffffffffffffffffffffffffffffffffffffffff166318160ddd6040518163ffffffff1660e01b8152600401602060405180830381865afa158015610625573d6000803e3d6000fd5b505050506040513d601f19601f820116820180604052508101906106499190610d66565b90508091505090565b60046020528060005260406000206000915054906101000a900460ff1681565b662386f26fc100003410156106bc576040517f08c379a00000000000000000000000000000000000000000000000000000000081526004016106b390610e05565b60405180910390fd5b34600260003373ffffffffffffffffffffffffffffffffffffffff1673ffffffffffffffffffffffffffffffffffffffff168152602001908152602001600020546107079190610e25565b600260003373ffffffffffffffffffffffffffffffffffffffff1673ffffffffffffffffffffffffffffffffffffffff1681526020019081526020016000208190555060001515600460003373ffffffffffffffffffffffffffffffffffffffff1673ffffffffffffffffffffffffffffffffffffffff16815260200190815260200160002060009054906101000a900460ff16151514156107e85742600360003373ffffffffffffffffffffffffffffffffffffffff1673ffffffffffffffffffffffffffffffffffffffff168152602001908152602001600020819055505b6001600460003373ffffffffffffffffffffffffffffffffffffffff1673ffffffffffffffffffffffffffffffffffffffff16815260200190815260200160002060006101000a81548160ff0219169083151502179055503373ffffffffffffffffffffffffffffffffffffffff167fe7e3372899c2f9e8db9e6ba8d734f4f11139c8f2e3944a20728903e7823e23623442600460003373ffffffffffffffffffffffffffffffffffffffff1673ffffffffffffffffffffffffffffffffffffffff16815260200190815260200160002060009054906101000a900460ff166040516108d693929190610e7b565b60405180910390a2565b565b670de0b6b3a764000034101561092d576040517f08c379a000000000000000000000000000000000000000000000000000000000815260040161092490610efe565b60405180910390fd5b60006001543461093d9190610c71565b905060008054906101000a900473ffffffffffffffffffffffffffffffffffffffff1673ffffffffffffffffffffffffffffffffffffffff166340c10f1933836040518363ffffffff1660e01b815260040161099a929190610cda565b600060405180830381600087803b1580156109b457600080fd5b505af11580156109c8573d6000803e3d6000fd5b505050503373ffffffffffffffffffffffffffffffffffffffff167f01af7a01f8b0b7b060d781e518529e732530dd0253b3248b1fb7fba8aa9b52413483604051610a14929190610f1e565b60405180910390a250565b60036020528060005260406000206000915090505481565b6000819050919050565b610a4a81610a37565b82525050565b6000602082019050610a656000830184610a41565b92915050565b600080fd5b600073ffffffffffffffffffffffffffffffffffffffff82169050919050565b6000610a9b82610a70565b9050919050565b610aab81610a90565b8114610ab657600080fd5b50565b600081359050610ac881610aa2565b92915050565b600060208284031215610ae457610ae3610a6b565b5b6000610af284828501610ab9565b91505092915050565b60008115159050919050565b610b1081610afb565b82525050565b6000602082019050610b2b6000830184610b07565b92915050565b600082825260208201905092915050565b7f4572726f722c20796f75206d757374206465706f736974206669727374000000600082015250565b6000610b78601d83610b31565b9150610b8382610b42565b602082019050919050565b60006020820190508181036000830152610ba781610b6b565b9050919050565b7f4e487b7100000000000000000000000000000000000000000000000000000000600052601160045260246000fd5b6000610be882610a37565b9150610bf383610a37565b925082821015610c0657610c05610bae565b5b828203905092915050565b7f4e487b7100000000000000000000000000000000000000000000000000000000600052601260045260246000fd5b6000610c4b82610a37565b9150610c5683610a37565b925082610c6657610c65610c11565b5b828204905092915050565b6000610c7c82610a37565b9150610c8783610a37565b9250817fffffffffffffffffffffffffffffffffffffffffffffffffffffffffffffffff0483118215151615610cc057610cbf610bae565b5b828202905092915050565b610cd481610a90565b82525050565b6000604082019050610cef6000830185610ccb565b610cfc6020830184610a41565b9392505050565b6000606082019050610d186000830186610a41565b610d256020830185610a41565b610d326040830184610a41565b949350505050565b610d4381610a37565b8114610d4e57600080fd5b50565b600081519050610d6081610d3a565b92915050565b600060208284031215610d7c57610d7b610a6b565b5b6000610d8a84828501610d51565b91505092915050565b7f4572726f72206465706f736974206d757374206265203e3d20302e303120455460008201527f4800000000000000000000000000000000000000000000000000000000000000602082015250565b6000610def602183610b31565b9150610dfa82610d93565b604082019050919050565b60006020820190508181036000830152610e1e81610de2565b9050919050565b6000610e3082610a37565b9150610e3b83610a37565b9250827fffffffffffffffffffffffffffffffffffffffffffffffffffffffffffffffff03821115610e7057610e6f610bae565b5b828201905092915050565b6000606082019050610e906000830186610a41565b610e9d6020830185610a41565b610eaa6040830184610b07565b949350505050565b7f4572726f72206465706f736974206d757374206265203e3d2031204554480000600082015250565b6000610ee8601e83610b31565b9150610ef382610eb2565b602082019050919050565b60006020820190508181036000830152610f1781610edb565b9050919050565b6000604082019050610f336000830185610a41565b610f406020830184610a41565b939250505056fea2646970667358221220c3fb401c19059a08871b02a33738e31ab9fab3989ead355fa7dbd1c13495437a64736f6c634300080b0033",
  "immutableReferences": {},
  "source": "// SPDX-License-Identifier: MIT\r\npragma solidity >0.8.0;\r\n\r\nimport \"./Token.sol\";\r\n\r\ncontract Bank {\r\n    //assign Token contract to variable\r\n    Token private token;\r\n\r\n    // conversion\r\n    uint256 public ethToKnsConversion = 100;\r\n\r\n    //add mappings\r\n    mapping(address => uint256) public etherBalanceOf;\r\n    mapping(address => uint256) public depositStart;\r\n    mapping(address => bool) public isDeposited;\r\n\r\n    //add events\r\n    event DepositEvent(\r\n        address indexed user,\r\n        uint256 etherAmount,\r\n        uint256 timeStart,\r\n        bool isDeposited\r\n    );\r\n    event WithdrawEvent(\r\n        address indexed user,\r\n        uint256 etherAmount,\r\n        uint256 depositTime,\r\n        uint256 interest\r\n    );\r\n    event SwapETHtoKNSEvent(\r\n        address indexed user,\r\n        uint256 etherAmount,\r\n        uint256 knsAmount\r\n    );\r\n\r\n    //pass as constructor argument deployed Token contract\r\n    constructor(Token _token) {\r\n        token = _token;\r\n    }\r\n\r\n    function getTokenTotalSupply() public view returns (uint256) {\r\n        uint256 totalSupply = token.totalSupply();\r\n        return totalSupply;\r\n    }\r\n\r\n    function deposit() public payable {\r\n        //check if msg.sender didn't already deposited funds\r\n        //check if msg.value is >= than 0.01 ETH\r\n        require(msg.value >= 1e16, \"Error deposit must be >= 0.01 ETH\");\r\n\r\n        //increase msg.sender ether deposit balance\r\n        //start msg.sender hodling time\r\n        etherBalanceOf[msg.sender] = etherBalanceOf[msg.sender] + msg.value;\r\n\r\n        // If there is no previous deposit, then save the time of this deposit only\r\n        if (isDeposited[msg.sender] == false)\r\n            depositStart[msg.sender] = block.timestamp;\r\n\r\n        //set msg.sender deposit status to true\r\n        isDeposited[msg.sender] = true;\r\n\r\n        //emit Deposit event\r\n        emit DepositEvent(\r\n            msg.sender,\r\n            msg.value,\r\n            block.timestamp,\r\n            isDeposited[msg.sender]\r\n        );\r\n    }\r\n\r\n    function withdraw() public {\r\n        //check if msg.sender deposit status is true\r\n        require(\r\n            isDeposited[msg.sender] == true,\r\n            \"Error, you must deposit first\"\r\n        );\r\n        //assign msg.sender ether deposit balance to variable for event\r\n        uint256 userBalance = etherBalanceOf[msg.sender];\r\n\r\n        //check user's hodl time\r\n        uint256 depositTime = block.timestamp - depositStart[msg.sender];\r\n\r\n        //calc interest per second\r\n        uint256 interestPerSecond = 31668017 *\r\n            (etherBalanceOf[msg.sender] / 1e16);\r\n        uint256 interest = interestPerSecond * depositTime;\r\n\r\n        //calc accrued interest\r\n        //send eth to user\r\n        payable(msg.sender).transfer(userBalance);\r\n\r\n        //send interest in tokens to user\r\n        token.mint(msg.sender, interest);\r\n\r\n        //reset depositer data\r\n        depositStart[msg.sender] = 0;\r\n        etherBalanceOf[msg.sender] = 0;\r\n        isDeposited[msg.sender] = false;\r\n\r\n        //emit event\r\n        emit WithdrawEvent(msg.sender, userBalance, depositTime, interest);\r\n    }\r\n\r\n    function swapETHtoKNS() public payable {\r\n        require(msg.value >= 1e18, \"Error deposit must be >= 1 ETH\");\r\n\r\n        uint256 knsAmount = msg.value * ethToKnsConversion;\r\n\r\n        token.mint(msg.sender, knsAmount);\r\n\r\n        //emit Deposit event\r\n        emit SwapETHtoKNSEvent(msg.sender, msg.value, knsAmount);\r\n    }\r\n\r\n    function borrow() public payable {\r\n        //check if collateral is >= than 0.01 ETH\r\n        //check if user doesn't have active loan\r\n        //add msg.value to ether collateral\r\n        //calc tokens amount to mint, 50% of msg.value\r\n        //mint&send tokens to user\r\n        //activate borrower's loan status\r\n        //emit event\r\n    }\r\n\r\n    function payOff() public {\r\n        //check if loan is active\r\n        //transfer tokens from user back to the contract\r\n        //calc fee\r\n        //send user's collateral minus fee\r\n        //reset borrower's data\r\n        //emit event\r\n    }\r\n}\r\n",
  "sourcePath": "/Users/jorgeandres/Documents/workspace/blockchain/dapp_bank/src/contracts/Bank.sol",
  "compiler": {
    "name": "solc",
    "version": "0.8.11+commit.d7f03943.Emscripten.clang"
  },
  "schemaVersion": "3.4.4",
  "updatedAt": "2022-01-27T13:14:58.810Z",
  "networkType": "ethereum",
  "devdoc": {
    "kind": "dev",
    "methods": {},
    "version": 1
  },
  "userdoc": {
    "kind": "user",
    "methods": {},
    "version": 1
  }
}